{
  "contractName": "Users",
  "abi": [
    {
      "constant": true,
      "inputs": [
        {
          "name": "",
          "type": "uint256"
        }
      ],
      "name": "users",
      "outputs": [
        {
          "name": "name",
          "type": "string"
        },
        {
          "name": "status",
          "type": "bytes32"
        },
        {
          "name": "walletAddress",
          "type": "address"
        },
        {
          "name": "createdAt",
          "type": "uint256"
        },
        {
          "name": "updatedAt",
          "type": "uint256"
        }
      ],
      "payable": false,
      "stateMutability": "view",
      "type": "function"
    },
    {
      "constant": true,
      "inputs": [
        {
          "name": "",
          "type": "address"
        }
      ],
      "name": "usersIds",
      "outputs": [
        {
          "name": "",
          "type": "uint256"
        }
      ],
      "payable": false,
      "stateMutability": "view",
      "type": "function"
    },
    {
      "inputs": [],
      "payable": false,
      "stateMutability": "nonpayable",
      "type": "constructor"
    },
    {
      "anonymous": false,
      "inputs": [
        {
          "indexed": false,
          "name": "id",
          "type": "uint256"
        }
      ],
      "name": "newUserRegistered",
      "type": "event"
    },
    {
      "anonymous": false,
      "inputs": [
        {
          "indexed": false,
          "name": "id",
          "type": "uint256"
        }
      ],
      "name": "userUpdateEvent",
      "type": "event"
    },
    {
      "constant": false,
      "inputs": [
        {
          "name": "userName",
          "type": "string"
        },
        {
          "name": "status",
          "type": "bytes32"
        }
      ],
      "name": "registerUser",
      "outputs": [
        {
          "name": "",
          "type": "uint256"
        }
      ],
      "payable": false,
      "stateMutability": "nonpayable",
      "type": "function"
    },
    {
      "constant": false,
      "inputs": [
        {
          "name": "newUserName",
          "type": "string"
        },
        {
          "name": "newStatus",
          "type": "bytes32"
        }
      ],
      "name": "updateUser",
      "outputs": [
        {
          "name": "",
          "type": "uint256"
        }
      ],
      "payable": false,
      "stateMutability": "nonpayable",
      "type": "function"
    },
    {
      "constant": true,
      "inputs": [
        {
          "name": "id",
          "type": "uint256"
        }
      ],
      "name": "getUserById",
      "outputs": [
        {
          "name": "",
          "type": "uint256"
        },
        {
          "name": "",
          "type": "string"
        },
        {
          "name": "",
          "type": "bytes32"
        },
        {
          "name": "",
          "type": "address"
        },
        {
          "name": "",
          "type": "uint256"
        },
        {
          "name": "",
          "type": "uint256"
        }
      ],
      "payable": false,
      "stateMutability": "view",
      "type": "function"
    },
    {
      "constant": true,
      "inputs": [],
      "name": "getOwnProfile",
      "outputs": [
        {
          "name": "",
          "type": "uint256"
        },
        {
          "name": "",
          "type": "string"
        },
        {
          "name": "",
          "type": "bytes32"
        },
        {
          "name": "",
          "type": "address"
        },
        {
          "name": "",
          "type": "uint256"
        },
        {
          "name": "",
          "type": "uint256"
        }
      ],
      "payable": false,
      "stateMutability": "view",
      "type": "function"
    },
    {
      "constant": true,
      "inputs": [],
      "name": "isRegistered",
      "outputs": [
        {
          "name": "",
          "type": "bool"
        }
      ],
      "payable": false,
      "stateMutability": "view",
      "type": "function"
    },
    {
      "constant": true,
      "inputs": [],
      "name": "totalUsers",
      "outputs": [
        {
          "name": "",
          "type": "uint256"
        }
      ],
      "payable": false,
      "stateMutability": "view",
      "type": "function"
    }
  ],
  "bytecode": "0x606060405234156200001057600080fd5b62000043600060206040519081016040528060008152506000620001c16401000000000262000996176401000000009004565b50620000c0653333333333336040805190810160405280600981526020017f4c656f2042726f776e00000000000000000000000000000000000000000000008152507f417661696c61626c650000000000000000000000000000000000000000000000620001c16401000000000262000996176401000000009004565b506200013d651111111111116040805190810160405280600881526020017f4a6f686e20446f650000000000000000000000000000000000000000000000008152507f5665727920686170707900000000000000000000000000000000000000000000620001c16401000000000262000996176401000000009004565b50620001ba652222222222226040805190810160405280600a81526020017f4d61727920536d697468000000000000000000000000000000000000000000008152507f4e6f7420696e20746865206d6f6f6420746f6461790000000000000000000000620001c16401000000000262000996176401000000009004565b506200054a565b60008060008060008773ffffffffffffffffffffffffffffffffffffffff1673ffffffffffffffffffffffffffffffffffffffff1681526020019081526020016000205491506000821415156200021757600080fd5b6001805490506000808873ffffffffffffffffffffffffffffffffffffffff1673ffffffffffffffffffffffffffffffffffffffff1681526020019081526020016000208190555060018054809190600101620002759190620003a7565b905060a060405190810160405280868152602001856000191681526020018773ffffffffffffffffffffffffffffffffffffffff16815260200142815260200142815250600182815481101515620002c957fe5b90600052602060002090600502016000820151816000019080519060200190620002f5929190620003dc565b506020820151816001019060001916905560408201518160020160006101000a81548173ffffffffffffffffffffffffffffffffffffffff021916908373ffffffffffffffffffffffffffffffffffffffff16021790555060608201518160030155608082015181600401559050507f2456c02735fb44894660d2af194ca5261385d8ee03675e1d75b0da1300a764cd816040518082815260200191505060405180910390a180925050509392505050565b815481835581811511620003d757600502816005028360005260206000209182019101620003d6919062000463565b5b505050565b828054600181600116156101000203166002900490600052602060002090601f016020900481019282601f106200041f57805160ff191683800117855562000450565b8280016001018555821562000450579182015b828111156200044f57825182559160200191906001019062000432565b5b5090506200045f9190620004d6565b5090565b620004d391905b80821115620004cf5760008082016000620004869190620004fe565b60018201600090556002820160006101000a81549073ffffffffffffffffffffffffffffffffffffffff021916905560038201600090556004820160009055506005016200046a565b5090565b90565b620004fb91905b80821115620004f7576000816000905550600101620004dd565b5090565b90565b50805460018160011615610100020316600290046000825580601f1062000526575062000547565b601f016020900490600052602060002090810190620005469190620004d6565b5b50565b610e26806200055a6000396000f30060606040526004361061008e576000357c0100000000000000000000000000000000000000000000000000000000900463ffffffff1680632236684414610093578063365b98b2146100c057806368ae5563146101ac5780636ed6da9e1461022a5780638f3947151461031d578063b8e21a5b1461039b578063bff1f9e1146103e8578063fd1b515814610411575b600080fd5b341561009e57600080fd5b6100a66104f6565b604051808215151515815260200191505060405180910390f35b34156100cb57600080fd5b6100e1600480803590602001909190505061053f565b604051808060200186600019166000191681526020018573ffffffffffffffffffffffffffffffffffffffff1673ffffffffffffffffffffffffffffffffffffffff168152602001848152602001838152602001828103825287818151815260200191508051906020019080838360005b8381101561016d578082015181840152602081019050610152565b50505050905090810190601f16801561019a5780820380516001836020036101000a031916815260200191505b50965050505050505060405180910390f35b34156101b757600080fd5b610214600480803590602001908201803590602001908080601f016020809104026020016040519081016040528093929190818152602001838380828437820191505050505050919080356000191690602001909190505061063c565b6040518082815260200191505060405180910390f35b341561023557600080fd5b61024b6004808035906020019091905050610651565b604051808781526020018060200186600019166000191681526020018573ffffffffffffffffffffffffffffffffffffffff1673ffffffffffffffffffffffffffffffffffffffff168152602001848152602001838152602001828103825287818151815260200191508051906020019080838360005b838110156102dd5780820151818401526020810190506102c2565b50505050905090810190601f16801561030a5780820380516001836020036101000a031916815260200191505b5097505050505050505060405180910390f35b341561032857600080fd5b610385600480803590602001908201803590602001908080601f0160208091040260200160405190810160405280939291908181526020018383808284378201915050505050509190803560001916906020019091905050610804565b6040518082815260200191505060405180910390f35b34156103a657600080fd5b6103d2600480803573ffffffffffffffffffffffffffffffffffffffff169060200190919050506108ed565b6040518082815260200191505060405180910390f35b34156103f357600080fd5b6103fb610905565b6040518082815260200191505060405180910390f35b341561041c57600080fd5b610424610912565b604051808781526020018060200186600019166000191681526020018573ffffffffffffffffffffffffffffffffffffffff1673ffffffffffffffffffffffffffffffffffffffff168152602001848152602001838152602001828103825287818151815260200191508051906020019080838360005b838110156104b657808201518184015260208101905061049b565b50505050905090810190601f1680156104e35780820380516001836020036101000a031916815260200191505b5097505050505050505060405180910390f35b6000806000803373ffffffffffffffffffffffffffffffffffffffff1673ffffffffffffffffffffffffffffffffffffffff168152602001908152602001600020541415905090565b60018181548110151561054e57fe5b9060005260206000209060050201600091509050806000018054600181600116156101000203166002900480601f0160208091040260200160405190810160405280929190818152602001828054600181600116156101000203166002900480156105fa5780601f106105cf576101008083540402835291602001916105fa565b820191906000526020600020905b8154815290600101906020018083116105dd57829003601f168201915b5050505050908060010154908060020160009054906101000a900473ffffffffffffffffffffffffffffffffffffffff16908060030154908060040154905085565b6000610649338484610996565b905092915050565b600061065b610b76565b600080600080610669610b8a565b600088118061067d57506001805490508811155b151561068857600080fd5b60018881548110151561069757fe5b906000526020600020906005020160a06040519081016040529081600082018054600181600116156101000203166002900480601f01602080910402602001604051908101604052809291908181526020018280546001816001161561010002031660029004801561074a5780601f1061071f5761010080835404028352916020019161074a565b820191906000526020600020905b81548152906001019060200180831161072d57829003601f168201915b505050505081526020016001820154600019166000191681526020016002820160009054906101000a900473ffffffffffffffffffffffffffffffffffffffff1673ffffffffffffffffffffffffffffffffffffffff1673ffffffffffffffffffffffffffffffffffffffff16815260200160038201548152602001600482015481525050905087816000015182602001518360400151846060015185608001518494509650965096509650965096505091939550919395565b60008060006108116104f6565b151561081c57600080fd5b6000803373ffffffffffffffffffffffffffffffffffffffff1673ffffffffffffffffffffffffffffffffffffffff16815260200190815260200160002054915060018281548110151561086c57fe5b9060005260206000209060050201905084816000019080519060200190610894929190610bd9565b50838160010181600019169055504281600401819055507f179dda4b314caed68129a8b8bbd77c7a4fb092c2d9fb3de452a4f8e4839dc876826040518082815260200191505060405180910390a1819250505092915050565b60006020528060005260406000206000915090505481565b6000600180549050905090565b600061091c610b76565b600080600080600061092c6104f6565b151561093757600080fd5b6000803373ffffffffffffffffffffffffffffffffffffffff1673ffffffffffffffffffffffffffffffffffffffff16815260200190815260200160002054905061098181610651565b96509650965096509650965050909192939495565b60008060008060008773ffffffffffffffffffffffffffffffffffffffff1673ffffffffffffffffffffffffffffffffffffffff1681526020019081526020016000205491506000821415156109eb57600080fd5b6001805490506000808873ffffffffffffffffffffffffffffffffffffffff1673ffffffffffffffffffffffffffffffffffffffff1681526020019081526020016000208190555060018054809190600101610a479190610c59565b905060a060405190810160405280868152602001856000191681526020018773ffffffffffffffffffffffffffffffffffffffff16815260200142815260200142815250600182815481101515610a9a57fe5b90600052602060002090600502016000820151816000019080519060200190610ac4929190610c8b565b506020820151816001019060001916905560408201518160020160006101000a81548173ffffffffffffffffffffffffffffffffffffffff021916908373ffffffffffffffffffffffffffffffffffffffff16021790555060608201518160030155608082015181600401559050507f2456c02735fb44894660d2af194ca5261385d8ee03675e1d75b0da1300a764cd816040518082815260200191505060405180910390a180925050509392505050565b602060405190810160405280600081525090565b60a060405190810160405280610b9e610d0b565b815260200160008019168152602001600073ffffffffffffffffffffffffffffffffffffffff16815260200160008152602001600081525090565b828054600181600116156101000203166002900490600052602060002090601f016020900481019282601f10610c1a57805160ff1916838001178555610c48565b82800160010185558215610c48579182015b82811115610c47578251825591602001919060010190610c2c565b5b509050610c559190610d1f565b5090565b815481835581811511610c8657600502816005028360005260206000209182019101610c859190610d44565b5b505050565b828054600181600116156101000203166002900490600052602060002090601f016020900481019282601f10610ccc57805160ff1916838001178555610cfa565b82800160010185558215610cfa579182015b82811115610cf9578251825591602001919060010190610cde565b5b509050610d079190610d1f565b5090565b602060405190810160405280600081525090565b610d4191905b80821115610d3d576000816000905550600101610d25565b5090565b90565b610daf91905b80821115610dab5760008082016000610d639190610db2565b60018201600090556002820160006101000a81549073ffffffffffffffffffffffffffffffffffffffff02191690556003820160009055600482016000905550600501610d4a565b5090565b90565b50805460018160011615610100020316600290046000825580601f10610dd85750610df7565b601f016020900490600052602060002090810190610df69190610d1f565b5b505600a165627a7a7230582010913b705e26092d8acf84140179be6020c82c75dfe576d552f505774179277d0029",
  "source": "pragma solidity ^0.4.21;\r\n\r\n\r\n\r\ncontract Users {\r\n    // data structure that stores a user\r\n    struct User {\r\n        string name;\r\n        bytes32 status;\r\n        address walletAddress;\r\n        uint createdAt;\r\n        uint updatedAt;\r\n    }\r\n\r\n    // it maps the user's wallet address with the user ID\r\n    mapping (address => uint) public usersIds;\r\n\r\n    // Array of User that holds the list of users and their details\r\n    User[] public users;\r\n\r\n    // event fired when an user is registered\r\n    event newUserRegistered(uint id);\r\n\r\n    // event fired when the user updates his status or name\r\n    event userUpdateEvent(uint id);\r\n\r\n\r\n\r\n    // Modifier: check if the caller of the smart contract is registered\r\n    modifier checkSenderIsRegistered {\r\n    \trequire(isRegistered());\r\n    \t_;\r\n    }\r\n\r\n\r\n\r\n    /**\r\n     * Constructor function\r\n     */\r\n    function Users() public {\r\n        // NOTE: the first user MUST be emtpy\r\n        addUser(0x0, \"\", \"\");\r\n\r\n        // Some dummy data\r\n        addUser(0x333333333333, \"Leo Brown\", \"Available\");\r\n        addUser(0x111111111111, \"John Doe\", \"Very happy\");\r\n        addUser(0x222222222222, \"Mary Smith\", \"Not in the mood today\");\r\n    }\r\n\r\n\r\n\r\n    /**\r\n     * Function to register a new user.\r\n     *\r\n     * @param userName \t\tThe displaying name\r\n     * @param status        The status of the user\r\n     */\r\n    function registerUser(string userName, bytes32 status) public\r\n    returns(uint)\r\n    {\r\n    \treturn addUser(msg.sender, userName, status);\r\n    }\r\n\r\n\r\n\r\n    /**\r\n     * Add a new user. This function must be private because an user\r\n     * cannot insert another user on behalf of someone else.\r\n     *\r\n     * @param wAddr \t\tAddress wallet of the user\r\n     * @param userName\t\tDisplaying name of the user\r\n     * @param status    \tStatus of the user\r\n     */\r\n    function addUser(address wAddr, string userName, bytes32 status) private\r\n    returns(uint)\r\n    {\r\n        // checking if the user is already registered\r\n        uint userId = usersIds[wAddr];\r\n        require (userId == 0);\r\n\r\n        // associating the user wallet address with the new ID\r\n        usersIds[wAddr] = users.length;\r\n        uint newUserId = users.length++;\r\n\r\n        // storing the new user details\r\n        users[newUserId] = User({\r\n        \tname: userName,\r\n        \tstatus: status,\r\n        \twalletAddress: wAddr,\r\n        \tcreatedAt: now,\r\n        \tupdatedAt: now\r\n        });\r\n\r\n        // emitting the event that a new user has been registered\r\n        emit newUserRegistered(newUserId);\r\n\r\n        return newUserId;\r\n    }\r\n\r\n\r\n\r\n    /**\r\n     * Update the user profile of the caller of this method.\r\n     * Note: the user can modify only his own profile.\r\n     *\r\n     * @param newUserName\tThe new user's displaying name\r\n     * @param newStatus \tThe new user's status\r\n     */\r\n    function updateUser(string newUserName, bytes32 newStatus) checkSenderIsRegistered public\r\n    returns(uint)\r\n    {\r\n    \t// An user can modify only his own profile.\r\n    \tuint userId = usersIds[msg.sender];\r\n\r\n    \tUser storage user = users[userId];\r\n\r\n    \tuser.name = newUserName;\r\n    \tuser.status = newStatus;\r\n    \tuser.updatedAt = now;\r\n\r\n    \temit userUpdateEvent(userId);\r\n\r\n    \treturn userId;\r\n    }\r\n\r\n\r\n\r\n    /**\r\n     * Get the user's profile information.\r\n     *\r\n     * @param id \tThe ID of the user stored on the blockchain.\r\n     */\r\n    function getUserById(uint id) public view\r\n    returns(\r\n    \tuint,\r\n    \tstring,\r\n    \tbytes32,\r\n    \taddress,\r\n    \tuint,\r\n    \tuint\r\n    ) {\r\n    \t// checking if the ID is valid\r\n    \trequire( (id > 0) || (id <= users.length) );\r\n\r\n    \tUser memory i = users[id];\r\n\r\n    \treturn (\r\n    \t\tid,\r\n    \t\ti.name,\r\n    \t\ti.status,\r\n    \t\ti.walletAddress,\r\n    \t\ti.createdAt,\r\n    \t\ti.updatedAt\r\n    \t);\r\n    }\r\n\r\n\r\n\r\n    /**\r\n     * Return the profile information of the caller.\r\n     */\r\n    function getOwnProfile() checkSenderIsRegistered public view\r\n    returns(\r\n    \tuint,\r\n    \tstring,\r\n    \tbytes32,\r\n    \taddress,\r\n    \tuint,\r\n    \tuint\r\n    ) {\r\n    \tuint id = usersIds[msg.sender];\r\n\r\n    \treturn getUserById(id);\r\n    }\r\n\r\n\r\n\r\n    /**\r\n     * Check if the user that is calling the smart contract is registered.\r\n     */\r\n    function isRegistered() public view returns (bool)\r\n    {\r\n    \treturn (usersIds[msg.sender] != 0);\r\n    }\r\n\r\n\r\n\r\n    /**\r\n     * Return the number of total registered users.\r\n     */\r\n    function totalUsers() public view returns (uint)\r\n    {\r\n        return users.length;\r\n    }\r\n\r\n}\r\n",
  "sourcePath": "C:\\Users\\Daniele\\blockchain\\articles\\ethereum-vuejs-dapp\\contracts\\Users.sol",
  "compiler": {
    "name": "solc",
    "version": "0.4.21+commit.dfe3193c.Emscripten.clang"
  },
  "schemaVersion": "2.0.0",
  "updatedAt": "2018-05-14T09:23:54.089Z"
}