{
  "contractName": "IdentityCards",
  "abi": [
    {
      "constant": true,
      "inputs": [
        {
          "name": "",
          "type": "address"
        }
      ],
      "name": "usersIdCards",
      "outputs": [
        {
          "name": "",
          "type": "uint256"
        }
      ],
      "payable": false,
      "stateMutability": "view",
      "type": "function"
    },
    {
      "constant": true,
      "inputs": [
        {
          "name": "",
          "type": "uint256"
        }
      ],
      "name": "idCards",
      "outputs": [
        {
          "name": "name",
          "type": "string"
        },
        {
          "name": "cardNumber",
          "type": "bytes32"
        },
        {
          "name": "walletAddress",
          "type": "address"
        },
        {
          "name": "createdAt",
          "type": "uint256"
        },
        {
          "name": "updatedAt",
          "type": "uint256"
        }
      ],
      "payable": false,
      "stateMutability": "view",
      "type": "function"
    },
    {
      "inputs": [],
      "payable": false,
      "stateMutability": "nonpayable",
      "type": "constructor"
    },
    {
      "anonymous": false,
      "inputs": [
        {
          "indexed": false,
          "name": "id",
          "type": "uint256"
        }
      ],
      "name": "newCardRegistered",
      "type": "event"
    },
    {
      "anonymous": false,
      "inputs": [
        {
          "indexed": false,
          "name": "id",
          "type": "uint256"
        }
      ],
      "name": "userUpdateEvent",
      "type": "event"
    },
    {
      "constant": false,
      "inputs": [
        {
          "name": "userName",
          "type": "string"
        },
        {
          "name": "cardNumber",
          "type": "bytes32"
        }
      ],
      "name": "registerUser",
      "outputs": [
        {
          "name": "",
          "type": "uint256"
        }
      ],
      "payable": false,
      "stateMutability": "nonpayable",
      "type": "function"
    },
    {
      "constant": false,
      "inputs": [
        {
          "name": "newUserName",
          "type": "string"
        },
        {
          "name": "newCardNumber",
          "type": "bytes32"
        }
      ],
      "name": "updateCard",
      "outputs": [
        {
          "name": "",
          "type": "uint256"
        }
      ],
      "payable": false,
      "stateMutability": "nonpayable",
      "type": "function"
    },
    {
      "constant": true,
      "inputs": [
        {
          "name": "id",
          "type": "uint256"
        }
      ],
      "name": "getCardById",
      "outputs": [
        {
          "name": "",
          "type": "uint256"
        },
        {
          "name": "",
          "type": "string"
        },
        {
          "name": "",
          "type": "bytes32"
        },
        {
          "name": "",
          "type": "address"
        },
        {
          "name": "",
          "type": "uint256"
        },
        {
          "name": "",
          "type": "uint256"
        }
      ],
      "payable": false,
      "stateMutability": "view",
      "type": "function"
    },
    {
      "constant": true,
      "inputs": [],
      "name": "getOwnCard",
      "outputs": [
        {
          "name": "",
          "type": "uint256"
        },
        {
          "name": "",
          "type": "string"
        },
        {
          "name": "",
          "type": "bytes32"
        },
        {
          "name": "",
          "type": "address"
        },
        {
          "name": "",
          "type": "uint256"
        },
        {
          "name": "",
          "type": "uint256"
        }
      ],
      "payable": false,
      "stateMutability": "view",
      "type": "function"
    },
    {
      "constant": true,
      "inputs": [],
      "name": "isRegistered",
      "outputs": [
        {
          "name": "",
          "type": "bool"
        }
      ],
      "payable": false,
      "stateMutability": "view",
      "type": "function"
    },
    {
      "constant": true,
      "inputs": [],
      "name": "totalIdCards",
      "outputs": [
        {
          "name": "",
          "type": "uint256"
        }
      ],
      "payable": false,
      "stateMutability": "view",
      "type": "function"
    }
  ],
  "bytecode": "0x60806040523480156200001157600080fd5b5062000040600060206040519081016040528060008152506000620001af640100000000026401000000009004565b50620000b8653333333333336040805190810160405280600981526020017f4c656f2042726f776e00000000000000000000000000000000000000000000008152507f4142543939393939393939393939393900000000000000000000000000000000620001af640100000000026401000000009004565b5062000130651111111111116040805190810160405280600881526020017f4a6f686e20446f650000000000000000000000000000000000000000000000008152507f4142433131313131313131313131313100000000000000000000000000000000620001af640100000000026401000000009004565b50620001a8652222222222226040805190810160405280600a81526020017f4d61727920536d697468000000000000000000000000000000000000000000008152507f4142583333333333333333333333333300000000000000000000000000000000620001af640100000000026401000000009004565b5062000538565b60008060008060008773ffffffffffffffffffffffffffffffffffffffff1673ffffffffffffffffffffffffffffffffffffffff1681526020019081526020016000205491506000821415156200020557600080fd5b6001805490506000808873ffffffffffffffffffffffffffffffffffffffff1673ffffffffffffffffffffffffffffffffffffffff168152602001908152602001600020819055506001805480919060010162000263919062000395565b905060a060405190810160405280868152602001856000191681526020018773ffffffffffffffffffffffffffffffffffffffff16815260200142815260200142815250600182815481101515620002b757fe5b90600052602060002090600502016000820151816000019080519060200190620002e3929190620003ca565b506020820151816001019060001916905560408201518160020160006101000a81548173ffffffffffffffffffffffffffffffffffffffff021916908373ffffffffffffffffffffffffffffffffffffffff16021790555060608201518160030155608082015181600401559050507fc637343caa16584eaf5a3e1453334442f6f5d048dde4c49fd2b51c79ef422db4816040518082815260200191505060405180910390a180925050509392505050565b815481835581811115620003c557600502816005028360005260206000209182019101620003c4919062000451565b5b505050565b828054600181600116156101000203166002900490600052602060002090601f016020900481019282601f106200040d57805160ff19168380011785556200043e565b828001600101855582156200043e579182015b828111156200043d57825182559160200191906001019062000420565b5b5090506200044d9190620004c4565b5090565b620004c191905b80821115620004bd5760008082016000620004749190620004ec565b60018201600090556002820160006101000a81549073ffffffffffffffffffffffffffffffffffffffff0219169055600382016000905560048201600090555060050162000458565b5090565b90565b620004e991905b80821115620004e5576000816000905550600101620004cb565b5090565b90565b50805460018160011615610100020316600290046000825580601f1062000514575062000535565b601f016020900490600052602060002090810190620005349190620004c4565b5b50565b610e2a80620005486000396000f30060806040526004361061008e576000357c0100000000000000000000000000000000000000000000000000000000900463ffffffff16806305cce18b14610093578063123c58bb146100ea5780631a8f928114610115578063223668441461020b578063406af4781461023a57806368ae5563146103215780639077fe52146103ac578063eeffe26b146104a9575b600080fd5b34801561009f57600080fd5b506100d4600480360381019080803573ffffffffffffffffffffffffffffffffffffffff169060200190929190505050610534565b6040518082815260200191505060405180910390f35b3480156100f657600080fd5b506100ff61054c565b6040518082815260200191505060405180910390f35b34801561012157600080fd5b5061014060048036038101908080359060200190929190505050610559565b604051808060200186600019166000191681526020018573ffffffffffffffffffffffffffffffffffffffff1673ffffffffffffffffffffffffffffffffffffffff168152602001848152602001838152602001828103825287818151815260200191508051906020019080838360005b838110156101cc5780820151818401526020810190506101b1565b50505050905090810190601f1680156101f95780820380516001836020036101000a031916815260200191505b50965050505050505060405180910390f35b34801561021757600080fd5b50610220610656565b604051808215151515815260200191505060405180910390f35b34801561024657600080fd5b5061024f61069f565b604051808781526020018060200186600019166000191681526020018573ffffffffffffffffffffffffffffffffffffffff1673ffffffffffffffffffffffffffffffffffffffff168152602001848152602001838152602001828103825287818151815260200191508051906020019080838360005b838110156102e15780820151818401526020810190506102c6565b50505050905090810190601f16801561030e5780820380516001836020036101000a031916815260200191505b5097505050505050505060405180910390f35b34801561032d57600080fd5b50610396600480360381019080803590602001908201803590602001908080601f0160208091040260200160405190810160405280939291908181526020018383808284378201915050505050509192919290803560001916906020019092919050505061071d565b6040518082815260200191505060405180910390f35b3480156103b857600080fd5b506103d760048036038101908080359060200190929190505050610732565b604051808781526020018060200186600019166000191681526020018573ffffffffffffffffffffffffffffffffffffffff1673ffffffffffffffffffffffffffffffffffffffff168152602001848152602001838152602001828103825287818151815260200191508051906020019080838360005b8381101561046957808201518184015260208101905061044e565b50505050905090810190601f1680156104965780820380516001836020036101000a031916815260200191505b5097505050505050505060405180910390f35b3480156104b557600080fd5b5061051e600480360381019080803590602001908201803590602001908080601f016020809104026020016040519081016040528093929190818152602001838380828437820191505050505050919291929080356000191690602001909291905050506108df565b6040518082815260200191505060405180910390f35b60006020528060005260406000206000915090505481565b6000600180549050905090565b60018181548110151561056857fe5b9060005260206000209060050201600091509050806000018054600181600116156101000203166002900480601f0160208091040260200160405190810160405280929190818152602001828054600181600116156101000203166002900480156106145780601f106105e957610100808354040283529160200191610614565b820191906000526020600020905b8154815290600101906020018083116105f757829003601f168201915b5050505050908060010154908060020160009054906101000a900473ffffffffffffffffffffffffffffffffffffffff16908060030154908060040154905085565b6000806000803373ffffffffffffffffffffffffffffffffffffffff1673ffffffffffffffffffffffffffffffffffffffff168152602001908152602001600020541415905090565b6000606060008060008060006106b3610656565b15156106be57600080fd5b6000803373ffffffffffffffffffffffffffffffffffffffff1673ffffffffffffffffffffffffffffffffffffffff16815260200190815260200160002054905061070881610732565b96509650965096509650965050909192939495565b600061072a3384846109c8565b905092915050565b60006060600080600080610744610ba8565b600088118061075857506001805490508811155b151561076357600080fd5b60018881548110151561077257fe5b906000526020600020906005020160a06040519081016040529081600082018054600181600116156101000203166002900480601f0160208091040260200160405190810160405280929190818152602001828054600181600116156101000203166002900480156108255780601f106107fa57610100808354040283529160200191610825565b820191906000526020600020905b81548152906001019060200180831161080857829003601f168201915b505050505081526020016001820154600019166000191681526020016002820160009054906101000a900473ffffffffffffffffffffffffffffffffffffffff1673ffffffffffffffffffffffffffffffffffffffff1673ffffffffffffffffffffffffffffffffffffffff16815260200160038201548152602001600482015481525050905087816000015182602001518360400151846060015185608001518494509650965096509650965096505091939550919395565b60008060006108ec610656565b15156108f757600080fd5b6000803373ffffffffffffffffffffffffffffffffffffffff1673ffffffffffffffffffffffffffffffffffffffff16815260200190815260200160002054915060018281548110151561094757fe5b906000526020600020906005020190508481600001908051906020019061096f929190610bf1565b50838160010181600019169055504281600401819055507f179dda4b314caed68129a8b8bbd77c7a4fb092c2d9fb3de452a4f8e4839dc876826040518082815260200191505060405180910390a1819250505092915050565b60008060008060008773ffffffffffffffffffffffffffffffffffffffff1673ffffffffffffffffffffffffffffffffffffffff168152602001908152602001600020549150600082141515610a1d57600080fd5b6001805490506000808873ffffffffffffffffffffffffffffffffffffffff1673ffffffffffffffffffffffffffffffffffffffff1681526020019081526020016000208190555060018054809190600101610a799190610c71565b905060a060405190810160405280868152602001856000191681526020018773ffffffffffffffffffffffffffffffffffffffff16815260200142815260200142815250600182815481101515610acc57fe5b90600052602060002090600502016000820151816000019080519060200190610af6929190610ca3565b506020820151816001019060001916905560408201518160020160006101000a81548173ffffffffffffffffffffffffffffffffffffffff021916908373ffffffffffffffffffffffffffffffffffffffff16021790555060608201518160030155608082015181600401559050507fc637343caa16584eaf5a3e1453334442f6f5d048dde4c49fd2b51c79ef422db4816040518082815260200191505060405180910390a180925050509392505050565b60a0604051908101604052806060815260200160008019168152602001600073ffffffffffffffffffffffffffffffffffffffff16815260200160008152602001600081525090565b828054600181600116156101000203166002900490600052602060002090601f016020900481019282601f10610c3257805160ff1916838001178555610c60565b82800160010185558215610c60579182015b82811115610c5f578251825591602001919060010190610c44565b5b509050610c6d9190610d23565b5090565b815481835581811115610c9e57600502816005028360005260206000209182019101610c9d9190610d48565b5b505050565b828054600181600116156101000203166002900490600052602060002090601f016020900481019282601f10610ce457805160ff1916838001178555610d12565b82800160010185558215610d12579182015b82811115610d11578251825591602001919060010190610cf6565b5b509050610d1f9190610d23565b5090565b610d4591905b80821115610d41576000816000905550600101610d29565b5090565b90565b610db391905b80821115610daf5760008082016000610d679190610db6565b60018201600090556002820160006101000a81549073ffffffffffffffffffffffffffffffffffffffff02191690556003820160009055600482016000905550600501610d4e565b5090565b90565b50805460018160011615610100020316600290046000825580601f10610ddc5750610dfb565b601f016020900490600052602060002090810190610dfa9190610d23565b5b505600a165627a7a72305820df12b04b29e95229c719755794ab51c24799df63e542fd97d8c17c9bfa16fd260029",
  "source": "pragma solidity ^0.4.21;\n\n\n\ncontract IdentityCards {\n\n    struct IdCard {\n        string name;\n        bytes32 cardNumber;\n        address walletAddress;\n        uint createdAt;\n        uint updatedAt;\n    }\n\n    // it maps the user wallet address with the ID card\n    mapping (address => uint) public usersIdCards;\n    // Identity card list where the array key is the id of the user\n    IdCard[] public idCards;\n\n    // event fired when an user registers a new identity card\n    event newCardRegistered(uint id);\n\n    // event fired when the user updates its own identity card\n    event userUpdateEvent(uint id);\n\n\n\n\t// Modifier: check if the caller of the smart contract has registered his identity card.\n\tmodifier checkSenderIsRegistered {\n\t\trequire(isRegistered());\n\t\t_;\n\t}\n\n\n\n\n    /**\n     * Constructor function\n     */\n    function IdentityCards() public {\n        addCard(0x0, \"\", \"\"); // NOTE: the first card MUST be emtpy\n\n        /* Some dummy data */\n        addCard(0x333333333333, \"Leo Brown\", \"ABT9999999999999\");\n        addCard(0x111111111111, \"John Doe\", \"ABC1111111111111\");\n        addCard(0x222222222222, \"Mary Smith\", \"ABX3333333333333\");\n    }\n\n\n\n    /**\n     * Allow a user to register itself.\n     *\n     * @param userName \t\tThe name that will appear on the card\n     * @param cardNumber\tThe identity card number\n     */\n    function registerUser(string userName, bytes32 cardNumber) public \n\treturns(uint)\n    {\n    \treturn addCard(msg.sender, userName, cardNumber);\n    }\n\n\n\n    /**\n     * Add a user with his information.\n     *\n     * @param wAddr \t\tAddress of the identity card to add\n     * @param userName\t\tName of the owner of the identity card\n     * @param cardNumber\tNumber of the user's cidentity card\n     */\n    function addCard(address wAddr, string userName, bytes32 cardNumber) private\n\treturns(uint)\n    {\n\t\tuint userCardId = usersIdCards[wAddr];\n\n\t\t// user' card ID must not exist\n\t\trequire (userCardId == 0);\n\n\t\tusersIdCards[wAddr] = idCards.length;\n\t\tuint newUserCardId = idCards.length++;\n\n\t\tidCards[newUserCardId] = IdCard({\n\t\t\tname: userName,\n\t\t\tcardNumber: cardNumber,\n\t\t\twalletAddress: wAddr,\n\t\t\tcreatedAt: now,\n\t\t\tupdatedAt: now\n\t\t});\n\n\t\temit newCardRegistered(newUserCardId);\n\n\t\treturn newUserCardId;\n    }\n\n\n\n\n    /**\n     * Update the identity card of the caller of this method.\n     * Note: the user can modify only his own ID card.\n     * \n     * @param newUserName\t\tThe new name that will appear on the identity card\n     * @param newCardNumber\t\tThe new user's identity card number\n     */\n    function updateCard(string newUserName, bytes32 newCardNumber) checkSenderIsRegistered public\n\treturns(uint)\n    {\n    \t// An user can modify only his own ID card.\n\t\tuint userId = usersIdCards[msg.sender];\n\n\t\tIdCard storage idCard = idCards[userId];\n\n\t\tidCard.name = newUserName;\n\t\tidCard.cardNumber = newCardNumber;\n\t\tidCard.updatedAt = now;\n\n\t\temit userUpdateEvent(userId);\n\n\t\treturn userId;\n    }\n\n\n\n\n    /**\n     * Get the user's card information by card ID.\n     * \n     * @param id \tThe ID of the identity card stored on the blockchain\n     */\n\tfunction getCardById(uint id) public view\n\treturns(\n\t\tuint,\n\t\tstring,\n\t\tbytes32,\n\t\taddress,\n\t\tuint,\n\t\tuint\n\t) {\n\t\t// checking if the \n\t\trequire( (id > 0) || (id <= idCards.length) );\n\n\t\tIdCard memory i = idCards[id];\n\n\t\treturn (\n\t\t\tid,\n\t\t\ti.name,\n\t\t\ti.cardNumber,\n\t\t\ti.walletAddress,\n\t\t\ti.createdAt,\n\t\t\ti.updatedAt\n\t\t);\n\t}\n\n\n\n\t/**\n\t * Return the identity card of the caller of this method.\n\t */\n\tfunction getOwnCard() checkSenderIsRegistered public view\n\treturns(\n\t\tuint,\n\t\tstring,\n\t\tbytes32,\n\t\taddress,\n\t\tuint,\n\t\tuint\n\t) {\n\t\tuint id = usersIdCards[msg.sender];\n\n\t\treturn getCardById(id);\n\t}\n\n\n\n\t/**\n\t * Check if the user that is calling the smart contract has registered his identity card.\n\t */\n\tfunction isRegistered() public view returns (bool)\n\t{\n\t\treturn (usersIdCards[msg.sender] != 0);\n\t}\n\n\n\n    /**\n     * Return the number of total identity cards.\n     */\n    function totalIdCards() public view returns (uint)\n    {\n        return idCards.length;\n    }\n\n\n}\n",
  "sourcePath": "/home/dan/Downloads/ethereum-vuejs-dapp/contracts/IdentityCards.sol",
  "compiler": {
    "name": "solc",
    "version": "0.4.23+commit.124ca40d.Emscripten.clang"
  },
  "schemaVersion": "2.0.0",
  "updatedAt": "2018-05-02T18:04:45.431Z"
}