{
  "contractName": "IdentityCards",
  "abi": [
    {
      "constant": true,
      "inputs": [
        {
          "name": "",
          "type": "address"
        }
      ],
      "name": "usersIdCards",
      "outputs": [
        {
          "name": "",
          "type": "uint256"
        }
      ],
      "payable": false,
      "stateMutability": "view",
      "type": "function"
    },
    {
      "constant": true,
      "inputs": [
        {
          "name": "",
          "type": "uint256"
        }
      ],
      "name": "idCards",
      "outputs": [
        {
          "name": "name",
          "type": "string"
        },
        {
          "name": "cardNumber",
          "type": "bytes32"
        },
        {
          "name": "walletAddress",
          "type": "address"
        },
        {
          "name": "createdAt",
          "type": "uint256"
        },
        {
          "name": "updatedAt",
          "type": "uint256"
        }
      ],
      "payable": false,
      "stateMutability": "view",
      "type": "function"
    },
    {
      "inputs": [],
      "payable": false,
      "stateMutability": "nonpayable",
      "type": "constructor"
    },
    {
      "anonymous": false,
      "inputs": [
        {
          "indexed": false,
          "name": "id",
          "type": "uint256"
        }
      ],
      "name": "newCardRegistered",
      "type": "event"
    },
    {
      "anonymous": false,
      "inputs": [
        {
          "indexed": false,
          "name": "id",
          "type": "uint256"
        }
      ],
      "name": "userUpdateEvent",
      "type": "event"
    },
    {
      "constant": false,
      "inputs": [
        {
          "name": "userName",
          "type": "string"
        },
        {
          "name": "cardNumber",
          "type": "bytes32"
        }
      ],
      "name": "registerUser",
      "outputs": [
        {
          "name": "",
          "type": "uint256"
        }
      ],
      "payable": false,
      "stateMutability": "nonpayable",
      "type": "function"
    },
    {
      "constant": false,
      "inputs": [
        {
          "name": "newUserName",
          "type": "string"
        },
        {
          "name": "newCardNumber",
          "type": "bytes32"
        }
      ],
      "name": "updateCard",
      "outputs": [
        {
          "name": "",
          "type": "uint256"
        }
      ],
      "payable": false,
      "stateMutability": "nonpayable",
      "type": "function"
    },
    {
      "constant": true,
      "inputs": [
        {
          "name": "id",
          "type": "uint256"
        }
      ],
      "name": "getCardById",
      "outputs": [
        {
          "name": "",
          "type": "uint256"
        },
        {
          "name": "",
          "type": "string"
        },
        {
          "name": "",
          "type": "bytes32"
        },
        {
          "name": "",
          "type": "address"
        },
        {
          "name": "",
          "type": "uint256"
        },
        {
          "name": "",
          "type": "uint256"
        }
      ],
      "payable": false,
      "stateMutability": "view",
      "type": "function"
    },
    {
      "constant": true,
      "inputs": [],
      "name": "getOwnCard",
      "outputs": [
        {
          "name": "",
          "type": "uint256"
        },
        {
          "name": "",
          "type": "string"
        },
        {
          "name": "",
          "type": "bytes32"
        },
        {
          "name": "",
          "type": "address"
        },
        {
          "name": "",
          "type": "uint256"
        },
        {
          "name": "",
          "type": "uint256"
        }
      ],
      "payable": false,
      "stateMutability": "view",
      "type": "function"
    },
    {
      "constant": true,
      "inputs": [],
      "name": "isRegistered",
      "outputs": [
        {
          "name": "",
          "type": "bool"
        }
      ],
      "payable": false,
      "stateMutability": "view",
      "type": "function"
    },
    {
      "constant": true,
      "inputs": [],
      "name": "totalIdCards",
      "outputs": [
        {
          "name": "",
          "type": "uint256"
        }
      ],
      "payable": false,
      "stateMutability": "view",
      "type": "function"
    }
  ],
  "bytecode": "0x606060405234156200001057600080fd5b62000043600060206040519081016040528060008152506000620001c16401000000000262000996176401000000009004565b50620000c0653333333333336040805190810160405280600981526020017f4c656f2042726f776e00000000000000000000000000000000000000000000008152507f4142543939393939393939393939393900000000000000000000000000000000620001c16401000000000262000996176401000000009004565b506200013d651111111111116040805190810160405280600881526020017f4a6f686e20446f650000000000000000000000000000000000000000000000008152507f4142433131313131313131313131313100000000000000000000000000000000620001c16401000000000262000996176401000000009004565b50620001ba652222222222226040805190810160405280600a81526020017f4d61727920536d697468000000000000000000000000000000000000000000008152507f4142583333333333333333333333333300000000000000000000000000000000620001c16401000000000262000996176401000000009004565b506200054a565b60008060008060008773ffffffffffffffffffffffffffffffffffffffff1673ffffffffffffffffffffffffffffffffffffffff1681526020019081526020016000205491506000821415156200021757600080fd5b6001805490506000808873ffffffffffffffffffffffffffffffffffffffff1673ffffffffffffffffffffffffffffffffffffffff1681526020019081526020016000208190555060018054809190600101620002759190620003a7565b905060a060405190810160405280868152602001856000191681526020018773ffffffffffffffffffffffffffffffffffffffff16815260200142815260200142815250600182815481101515620002c957fe5b90600052602060002090600502016000820151816000019080519060200190620002f5929190620003dc565b506020820151816001019060001916905560408201518160020160006101000a81548173ffffffffffffffffffffffffffffffffffffffff021916908373ffffffffffffffffffffffffffffffffffffffff16021790555060608201518160030155608082015181600401559050507fc637343caa16584eaf5a3e1453334442f6f5d048dde4c49fd2b51c79ef422db4816040518082815260200191505060405180910390a180925050509392505050565b815481835581811511620003d757600502816005028360005260206000209182019101620003d6919062000463565b5b505050565b828054600181600116156101000203166002900490600052602060002090601f016020900481019282601f106200041f57805160ff191683800117855562000450565b8280016001018555821562000450579182015b828111156200044f57825182559160200191906001019062000432565b5b5090506200045f9190620004d6565b5090565b620004d391905b80821115620004cf5760008082016000620004869190620004fe565b60018201600090556002820160006101000a81549073ffffffffffffffffffffffffffffffffffffffff021916905560038201600090556004820160009055506005016200046a565b5090565b90565b620004fb91905b80821115620004f7576000816000905550600101620004dd565b5090565b90565b50805460018160011615610100020316600290046000825580601f1062000526575062000547565b601f016020900490600052602060002090810190620005469190620004d6565b5b50565b610e26806200055a6000396000f30060606040526004361061008e576000357c0100000000000000000000000000000000000000000000000000000000900463ffffffff16806305cce18b14610093578063123c58bb146100e05780631a8f92811461010957806322366844146101f5578063406af4781461022257806368ae5563146103075780639077fe5214610385578063eeffe26b14610478575b600080fd5b341561009e57600080fd5b6100ca600480803573ffffffffffffffffffffffffffffffffffffffff169060200190919050506104f6565b6040518082815260200191505060405180910390f35b34156100eb57600080fd5b6100f361050e565b6040518082815260200191505060405180910390f35b341561011457600080fd5b61012a600480803590602001909190505061051b565b604051808060200186600019166000191681526020018573ffffffffffffffffffffffffffffffffffffffff1673ffffffffffffffffffffffffffffffffffffffff168152602001848152602001838152602001828103825287818151815260200191508051906020019080838360005b838110156101b657808201518184015260208101905061019b565b50505050905090810190601f1680156101e35780820380516001836020036101000a031916815260200191505b50965050505050505060405180910390f35b341561020057600080fd5b610208610618565b604051808215151515815260200191505060405180910390f35b341561022d57600080fd5b610235610661565b604051808781526020018060200186600019166000191681526020018573ffffffffffffffffffffffffffffffffffffffff1673ffffffffffffffffffffffffffffffffffffffff168152602001848152602001838152602001828103825287818151815260200191508051906020019080838360005b838110156102c75780820151818401526020810190506102ac565b50505050905090810190601f1680156102f45780820380516001836020036101000a031916815260200191505b5097505050505050505060405180910390f35b341561031257600080fd5b61036f600480803590602001908201803590602001908080601f01602080910402602001604051908101604052809392919081815260200183838082843782019150505050505091908035600019169060200190919050506106e5565b6040518082815260200191505060405180910390f35b341561039057600080fd5b6103a660048080359060200190919050506106fa565b604051808781526020018060200186600019166000191681526020018573ffffffffffffffffffffffffffffffffffffffff1673ffffffffffffffffffffffffffffffffffffffff168152602001848152602001838152602001828103825287818151815260200191508051906020019080838360005b8381101561043857808201518184015260208101905061041d565b50505050905090810190601f1680156104655780820380516001836020036101000a031916815260200191505b5097505050505050505060405180910390f35b341561048357600080fd5b6104e0600480803590602001908201803590602001908080601f01602080910402602001604051908101604052809392919081815260200183838082843782019150505050505091908035600019169060200190919050506108ad565b6040518082815260200191505060405180910390f35b60006020528060005260406000206000915090505481565b6000600180549050905090565b60018181548110151561052a57fe5b9060005260206000209060050201600091509050806000018054600181600116156101000203166002900480601f0160208091040260200160405190810160405280929190818152602001828054600181600116156101000203166002900480156105d65780601f106105ab576101008083540402835291602001916105d6565b820191906000526020600020905b8154815290600101906020018083116105b957829003601f168201915b5050505050908060010154908060020160009054906101000a900473ffffffffffffffffffffffffffffffffffffffff16908060030154908060040154905085565b6000806000803373ffffffffffffffffffffffffffffffffffffffff1673ffffffffffffffffffffffffffffffffffffffff168152602001908152602001600020541415905090565b600061066b610b76565b600080600080600061067b610618565b151561068657600080fd5b6000803373ffffffffffffffffffffffffffffffffffffffff1673ffffffffffffffffffffffffffffffffffffffff1681526020019081526020016000205490506106d0816106fa565b96509650965096509650965050909192939495565b60006106f2338484610996565b905092915050565b6000610704610b76565b600080600080610712610b8a565b600088118061072657506001805490508811155b151561073157600080fd5b60018881548110151561074057fe5b906000526020600020906005020160a06040519081016040529081600082018054600181600116156101000203166002900480601f0160208091040260200160405190810160405280929190818152602001828054600181600116156101000203166002900480156107f35780601f106107c8576101008083540402835291602001916107f3565b820191906000526020600020905b8154815290600101906020018083116107d657829003601f168201915b505050505081526020016001820154600019166000191681526020016002820160009054906101000a900473ffffffffffffffffffffffffffffffffffffffff1673ffffffffffffffffffffffffffffffffffffffff1673ffffffffffffffffffffffffffffffffffffffff16815260200160038201548152602001600482015481525050905087816000015182602001518360400151846060015185608001518494509650965096509650965096505091939550919395565b60008060006108ba610618565b15156108c557600080fd5b6000803373ffffffffffffffffffffffffffffffffffffffff1673ffffffffffffffffffffffffffffffffffffffff16815260200190815260200160002054915060018281548110151561091557fe5b906000526020600020906005020190508481600001908051906020019061093d929190610bd9565b50838160010181600019169055504281600401819055507f179dda4b314caed68129a8b8bbd77c7a4fb092c2d9fb3de452a4f8e4839dc876826040518082815260200191505060405180910390a1819250505092915050565b60008060008060008773ffffffffffffffffffffffffffffffffffffffff1673ffffffffffffffffffffffffffffffffffffffff1681526020019081526020016000205491506000821415156109eb57600080fd5b6001805490506000808873ffffffffffffffffffffffffffffffffffffffff1673ffffffffffffffffffffffffffffffffffffffff1681526020019081526020016000208190555060018054809190600101610a479190610c59565b905060a060405190810160405280868152602001856000191681526020018773ffffffffffffffffffffffffffffffffffffffff16815260200142815260200142815250600182815481101515610a9a57fe5b90600052602060002090600502016000820151816000019080519060200190610ac4929190610c8b565b506020820151816001019060001916905560408201518160020160006101000a81548173ffffffffffffffffffffffffffffffffffffffff021916908373ffffffffffffffffffffffffffffffffffffffff16021790555060608201518160030155608082015181600401559050507fc637343caa16584eaf5a3e1453334442f6f5d048dde4c49fd2b51c79ef422db4816040518082815260200191505060405180910390a180925050509392505050565b602060405190810160405280600081525090565b60a060405190810160405280610b9e610d0b565b815260200160008019168152602001600073ffffffffffffffffffffffffffffffffffffffff16815260200160008152602001600081525090565b828054600181600116156101000203166002900490600052602060002090601f016020900481019282601f10610c1a57805160ff1916838001178555610c48565b82800160010185558215610c48579182015b82811115610c47578251825591602001919060010190610c2c565b5b509050610c559190610d1f565b5090565b815481835581811511610c8657600502816005028360005260206000209182019101610c859190610d44565b5b505050565b828054600181600116156101000203166002900490600052602060002090601f016020900481019282601f10610ccc57805160ff1916838001178555610cfa565b82800160010185558215610cfa579182015b82811115610cf9578251825591602001919060010190610cde565b5b509050610d079190610d1f565b5090565b602060405190810160405280600081525090565b610d4191905b80821115610d3d576000816000905550600101610d25565b5090565b90565b610daf91905b80821115610dab5760008082016000610d639190610db2565b60018201600090556002820160006101000a81549073ffffffffffffffffffffffffffffffffffffffff02191690556003820160009055600482016000905550600501610d4a565b5090565b90565b50805460018160011615610100020316600290046000825580601f10610dd85750610df7565b601f016020900490600052602060002090810190610df69190610d1f565b5b505600a165627a7a723058206af4dc95199bac75ad72b29b5d284c96aee969ebe0a134da801c3694b854bd970029",
  "source": "pragma solidity ^0.4.21;\r\n\r\n\r\n\r\ncontract IdentityCards {\r\n\r\n    struct IdCard {\r\n        string name;\r\n        bytes32 cardNumber;\r\n        address walletAddress;\r\n        uint createdAt;\r\n        uint updatedAt;\r\n    }\r\n\r\n    // it maps the user wallet address with the ID card\r\n    mapping (address => uint) public usersIdCards;\r\n    // Identity card list where the array key is the id of the user\r\n    IdCard[] public idCards;\r\n\r\n    // event fired when an user registers a new identity card\r\n    event newCardRegistered(uint id);\r\n\r\n    // event fired when the user updates its own identity card\r\n    event userUpdateEvent(uint id);\r\n\r\n\r\n\r\n\t// Modifier: check if the caller of the smart contract has registered his identity card.\r\n\tmodifier checkSenderIsRegistered {\r\n\t\trequire(isRegistered());\r\n\t\t_;\r\n\t}\r\n\r\n\r\n\r\n\r\n    /**\r\n     * Constructor function\r\n     */\r\n    function IdentityCards() public {\r\n        addCard(0x0, \"\", \"\"); // NOTE: the first card MUST be emtpy\r\n\r\n        /* Some dummy data */\r\n        addCard(0x333333333333, \"Leo Brown\", \"ABT9999999999999\");\r\n        addCard(0x111111111111, \"John Doe\", \"ABC1111111111111\");\r\n        addCard(0x222222222222, \"Mary Smith\", \"ABX3333333333333\");\r\n    }\r\n\r\n\r\n\r\n    /**\r\n     * Allow a user to register itself.\r\n     *\r\n     * @param userName \t\tThe name that will appear on the card\r\n     * @param cardNumber\tThe identity card number\r\n     */\r\n    function registerUser(string userName, bytes32 cardNumber) public \r\n\treturns(uint)\r\n    {\r\n    \treturn addCard(msg.sender, userName, cardNumber);\r\n    }\r\n\r\n\r\n\r\n    /**\r\n     * Add a user with his information.\r\n     *\r\n     * @param wAddr \t\tAddress of the identity card to add\r\n     * @param userName\t\tName of the owner of the identity card\r\n     * @param cardNumber\tNumber of the user's cidentity card\r\n     */\r\n    function addCard(address wAddr, string userName, bytes32 cardNumber) private\r\n\treturns(uint)\r\n    {\r\n\t\tuint userCardId = usersIdCards[wAddr];\r\n\r\n\t\t// user' card ID must not exist\r\n\t\trequire (userCardId == 0);\r\n\r\n\t\tusersIdCards[wAddr] = idCards.length;\r\n\t\tuint newUserCardId = idCards.length++;\r\n\r\n\t\tidCards[newUserCardId] = IdCard({\r\n\t\t\tname: userName,\r\n\t\t\tcardNumber: cardNumber,\r\n\t\t\twalletAddress: wAddr,\r\n\t\t\tcreatedAt: now,\r\n\t\t\tupdatedAt: now\r\n\t\t});\r\n\r\n\t\temit newCardRegistered(newUserCardId);\r\n\r\n\t\treturn newUserCardId;\r\n    }\r\n\r\n\r\n\r\n\r\n    /**\r\n     * Update the identity card of the caller of this method.\r\n     * Note: the user can modify only his own ID card.\r\n     * \r\n     * @param newUserName\t\tThe new name that will appear on the identity card\r\n     * @param newCardNumber\t\tThe new user's identity card number\r\n     */\r\n    function updateCard(string newUserName, bytes32 newCardNumber) checkSenderIsRegistered public\r\n\treturns(uint)\r\n    {\r\n    \t// An user can modify only his own ID card.\r\n\t\tuint userId = usersIdCards[msg.sender];\r\n\r\n\t\tIdCard storage idCard = idCards[userId];\r\n\r\n\t\tidCard.name = newUserName;\r\n\t\tidCard.cardNumber = newCardNumber;\r\n\t\tidCard.updatedAt = now;\r\n\r\n\t\temit userUpdateEvent(userId);\r\n\r\n\t\treturn userId;\r\n    }\r\n\r\n\r\n\r\n\r\n    /**\r\n     * Get the user's card information by card ID.\r\n     * \r\n     * @param id \tThe ID of the identity card stored on the blockchain\r\n     */\r\n\tfunction getCardById(uint id) public view\r\n\treturns(\r\n\t\tuint,\r\n\t\tstring,\r\n\t\tbytes32,\r\n\t\taddress,\r\n\t\tuint,\r\n\t\tuint\r\n\t) {\r\n\t\t// checking if the \r\n\t\trequire( (id > 0) || (id <= idCards.length) );\r\n\r\n\t\tIdCard memory i = idCards[id];\r\n\r\n\t\treturn (\r\n\t\t\tid,\r\n\t\t\ti.name,\r\n\t\t\ti.cardNumber,\r\n\t\t\ti.walletAddress,\r\n\t\t\ti.createdAt,\r\n\t\t\ti.updatedAt\r\n\t\t);\r\n\t}\r\n\r\n\r\n\r\n\t/**\r\n\t * Return the identity card of the caller of this method.\r\n\t */\r\n\tfunction getOwnCard() checkSenderIsRegistered public view\r\n\treturns(\r\n\t\tuint,\r\n\t\tstring,\r\n\t\tbytes32,\r\n\t\taddress,\r\n\t\tuint,\r\n\t\tuint\r\n\t) {\r\n\t\tuint id = usersIdCards[msg.sender];\r\n\r\n\t\treturn getCardById(id);\r\n\t}\r\n\r\n\r\n\r\n\t/**\r\n\t * Check if the user that is calling the smart contract has registered his identity card.\r\n\t */\r\n\tfunction isRegistered() public view returns (bool)\r\n\t{\r\n\t\treturn (usersIdCards[msg.sender] != 0);\r\n\t}\r\n\r\n\r\n\r\n    /**\r\n     * Return the number of total identity cards.\r\n     */\r\n    function totalIdCards() public view returns (uint)\r\n    {\r\n        return idCards.length;\r\n    }\r\n\r\n\r\n}\r\n",
  "sourcePath": "C:\\Users\\Daniele\\blockchain\\articles\\ethereum-vue\\contracts\\IdentityCards.sol",
  "compiler": {
    "name": "solc",
    "version": "0.4.21+commit.dfe3193c.Emscripten.clang"
  },
  "schemaVersion": "2.0.0",
  "updatedAt": "2018-05-01T17:00:43.956Z"
}